:100000000428FF3FFF3FFF3F7F20831686018312B6
:1000100086010730831685008312850101300505AE
:10002000C1004108013A031D2328960A16080A3A1E
:10003000031D1B28960198010F301802031823286E
:100040004E20980A1C28003085180130C100410854
:10005000013A031D3928970A17080A3A031D312867
:10006000970198010F301802031839284E20980A7A
:100070003228003005190130C1004108013A031D42
:100080004B289701960198010F30180203184B284E
:100090004E20980A44284E200E284D280313831220
:1000A00016080C3F840000088600083085000D30DB
:1000B000CB00FF30CA00CB0B5E286128CA0B5E283C
:1000C0005B28F330CA00CA0B6328000086011708BA
:1000D0000C3F840000088600103085000D30CB00F6
:1000E000FF30CA00CB0B75287828CA0B75287228F8
:1000F000F330CA00CA0B7A280000860108000030DD
:10010000031383129600003097003F308C000630B6
:100110008D005B308E004F308F00663090006D3068
:1001200091007D309200073093007F3094006F3053
:1001300095000800FF3FFF3FFF3FFF3FFF3FFF3FAE
:02400E00FA3F77
:00000001FF
