:020000003029A5
:10000600410DC80DC90D4408C8024508031C450F1B
:10001600C902C00DC10D0F30CC00410DC80DC90D70
:100026004408401C1C28C8024508031C450FC90289
:100036002128C80745080318450FC907C00DC10D7B
:10004600CC0B102840182D284408C807450803186B
:08005600450FC9070000080076
:0C005E0083120D088A000C0882000800C4
:10006A00831203132230CC00C801C901CA01CB0193
:10007A00CC0303196B280310CB0CCA0CC90CC80C8F
:10008A00C30CC20CC10CC00C031C3D28CC030319C1
:10009A005D284408C80745080318450FC9074608DC
:1000AA000318460FCA0747080318470FCB0741280A
:1000BA004408C80745080318450FC9074608031826
:0E00CA00460FCA0747080318470FCB07080068
:1000D80083122B088E002C088F00900191010130AB
:0400E800920008007A
:1000EC002F208A110A128000840A8C0A03198D0AA7
:0800FC00C003031D7628080073
:1001040083124408003A031D90284508003A031D51
:100114009028FF30C0007F30C100E9288312031308
:10012400CD01C901C8014108400403190034410844
:100134004506CA00CA1BCD09CB01C51FA628C409A0
:10014400C509C40A0319C50AC11FAD28C009C109DC
:10015400C00A0319C10A41084504CA00CA1BC228BF
:1001640003204B18D528CD1F0034C009C109C00A8B
:100174000319C10AC809C909C80A0319C90A0034FC
:10018400C51FD128C11BCD284108C9004008C8009B
:10019400C101C001B528C101C001C00A0034C109B0
:1001A400C009CB0AB228C80A0319C90A440848027C
:1001B400031DB52845084902031DB528C901C80116
:1001C400C00A0319C10AC11FB5280000FF34080082
:1001D40083121208031DF3280130AB000030AC0079
:1001E4006C200E08C0000F08C1001008C2001108DE
:1001F400C3006D30C4004E30C500C630C600413067
:10020400C70035203930C5003030C600C701C801E9
:100214004008C50741080318410FC60742080318E0
:10022400420FC70743080318430FC8074708C00015
:100234004808C1000030C81BFF30C300FF30C005B0
:100244007F30C1050030C205C30540088E00410857
:0C0254008F004208900043089100080051
:1002600001308312950003309600073097000F305D
:1002700098001F3099003F309A003E309B003C3080
:100280009C0038309D0030309E0020309F00A0013F
:100290003F30A1000630A2005B30A3004F30A40025
:1002A0006630A5006D30A6007D30A7000730A8009D
:1002B0007F30A9006F30AA000730831685008601C1
:1002C000403083128600051CB32993010C301302C1
:1002D00003188B2913080B3CC000C101031CC10388
:1002E0004008153E840000088600EA201030C40053
:1002F0000E30C500822040089400851C80298C297E
:100300004130CC00EE30CD00CD0B8429CC0B8429BC
:100310000000930A6629652993010330130203182C
:10032000B32986010230CB000430CC00BA30CD00B6
:10033000CD0B9829CC0B9829CB0B982900001408D9
:10034000213E8400000886000230CB000430CC003F
:10035000BA30CD00CD0BAA29CC0BAA29CB0BAA29E8
:100360000000930A8D29051DFD2993010C3013020D
:100370000318D5291308153E840000088600EA20DA
:100380001030C4000E30C500822040089400851C47
:10039000CA29D6294130CC00EE30CD00CD0BCE2974
:1003A000CC0BCE290000930AB629B529930103305E
:1003B00013020318FD2986010230CB000430CC0063
:1003C000BA30CD00CD0BE229CC0BE229CB0BE229D0
:1003D00000001408213E8400000886000230CB0093
:1003E0000430CC00BA30CD00CD0BF429CC0BF4296D
:0E03F000CB0BF4290000930AD7296329FE29BC
:02400E00FA3F77
:00000001FF
