:02000000E22BF1
:1000060083160313141911281F301105F100710806
:10001600003A031D11280130F0000800F001080025
:06002600000000000800CC
:10002C000E3083120313FD00FD0B1A28000008008C
:10003C00831203138C113D0893008316141D27287B
:10004C00232883128C192B2827288316111B302860
:0C005C00F001080011150230F00008004F
:10006800803083120313BE00BD093E0803195228CD
:100078003E083D05F10071080130031D0030F00015
:1000880070184828071149280715132013208714CA
:0E009800162087101620BE0CBE133928080053
:1000A600831203137008F100F0010830FC00710898
:1000B600F40C03186228FC0B5B28F10100340310D2
:1000C6006728F40C0318F107F10CF00CFC0B6428FC
:0200D600080020
:1000D80083120313BD01BE013E08123C031D76289E
:1000E8003D088E3C031C82280320700803197D28D4
:1000F80082288312BD0A0319BE0A7028831212309F
:100108003E02031D89288F303D02031C8E287B3058
:10011800F000080083161114111C93289028F00190
:020128000800CD
:10012A00831203138C118316911583128C199E283E
:10013A009A281308F1003D08003A031DA7288316E0
:10014A009116A9288316911283128C1183161116FF
:0E015A0083128C19B128AD287108F00008003E
:080168008316031311150800B2
:0E017000831603139114911CBE28BB280800AF
:10017E008316031387160711871083128712071130
:04018E0087100800CE
:1001920083120313F8010830FC00700DF80D740887
:1001A200F8020318D628F8070310F00DFC0BCE282E
:0201B200080043
:1001B400023083120313FC004930FD00FD0BE028DC
:0A01C400FC0BE0280000000008001A
:0E01CE008312031322088A0021088200080011
:1001DC0083120313390884000008BA0070303A0502
:1001EC00F2007208F000F00CF013F00CF013F00CAD
:1001FC00F013F00CF0130A30F40053200F303A05D2
:10020C00F1007108F0073908840070088000380884
:10021C0084000008BA00F0303A05F2007208F000D1
:10022C00F00CF013F00CF013F00CF013F00CF013C6
:10023C000A30F40053200F303A05F1007108F00732
:10024C003808840070088000370884000008BA0061
:10025C0030303A05F2007208F000F00CF013F00C9C
:10026C00F013F00CF013F00CF0130A30F4005320E0
:10027C000F303A05F1007108F00737088400700858
:04028C0080000800E6
:100290008312031307100130BD0034203708BD005E
:1002A0003420071407100230BD0034203808BD0088
:1002B0003420071407100330BD0034203908BD0076
:1002C0003420071407100430BD0034203A08BD0064
:1002D0003420071407100530BD0034203B08BD0052
:1002E0003420071407100630BD0034203C08BD0040
:1002F0003420071407100730BD003420FF30BD0044
:100300003420071407100830BD003420FF30BD0032
:0603100034200714080070
:100316006C20D03083120313BD001E208312BD0152
:100326001E20B820D1308312BD001E20013083125A
:10033600BD00952039088400700880000130BD009A
:1003460095203808840070088000BD019520370884
:0A035600840070088000B420080045
:10036000831203130519B9293B3026020318B92952
:10037000A60A8519C0292608003C0318C029A6032F
:100380002030B7002330B8002530B9008B21203051
:100390008312B7002330B8002530B900EE202008C2
:1003A0000C3C0318D5290C30A0020A30F4002708B1
:1003B000F000C9207008A4000A30F4002708F000FB
:1003C000C9207808F0007008AA000A30F400260856
:1003D000F000C9207008A9000A30F4002608F000D7
:1003E000C9207808F0007008AB000A30F400250836
:1003F000F000C9207008AD000A30F4002508F000B4
:10040000C9207808F0007008AC007008B7002D080B
:10041000B8002B08B9002908BA002A08BB00240834
:10042000BC0048218230FC00DD30FD00FD0B162AA7
:10043000FC0B162A000000002C08B7002D08B8009D
:10044000FF30B900FF30BA002A08BB002408BC0006
:1004500048218230FC00DD30FD00FD0B2D2AFC0B15
:080460002D2A00000000080035
:1004680083120313B2013108093C0318562A0A30D3
:10047800F4003108F000C9207008B2007008B2001A
:10048800B20D3210B20D3210B20D3210B20D321060
:100498000A30F4003108F000C9207808F00070082C
:0E04A800B204582A3108B2003208F0000800F1
:1004B600831203130519642A0C3027020318642AD1
:1004C600A70A85196B2A2708013C03186B2AA7037C
:1004D6002030B7002330B8002530B9008B212030FA
:1004E6008312B7002330B8002530B900EE2020086B
:1004F6000C3C0318802A0C30A0020A30F4002708AE
:10050600F000C9207008A4000A30F4002708F000A3
:10051600C9207808F0007008AA000A30F400230801
:10052600F000C9207008A9000A30F4002308F00082
:10053600C9207808F0007008AB000A30F4002508DE
:10054600F000C9207008AD000A30F4002508F0005C
:10055600C9207808F0007008AC007008B7002D08B4
:10056600B8002B08B9002908BA002A08BB002408DD
:10057600BC0048218230FC00DD30FD00FD0BC12AA5
:10058600FC0BC12A000000002C08B7002D08B8009B
:100596002B08B9002908BA00FF30BB00FF30BC00A9
:1005A60048218230FC00DD30FD00FD0BD82AFC0B13
:0805B600D82A00000000080033
:1005BE0083120313B6013208F1000130F000710806
:1005CE000319ED2AF00D7010FF3EE72A7008B500F2
:1005DE003108840070080005F10071080130031D18
:1005EE000030F0003408F0060319152B3308003CD8
:1005FE000318052BDA20DA20B303FD2A3108840014
:10060E0035080005F10071080130031D0030F000BF
:10061E003408F0060319152BFF30B6003608F0002B
:02062E000800C2
:100630006C20D03083120313BD001E208312BD0135
:100640001E2080308312BD001E2083123208BD00A0
:100650001E2083123108BD001E20B4206C20D03033
:1006600083120313BD001E208312BD011E208312BE
:0A0670003308BD001E20B42008006E
:10067A00831603130710BF2007100930BD0034206A
:10068A00FF30BD003420071407100A30BD003420A3
:10069A000F30BD003420071407100B30BD00342082
:1006AA000730BD003420071407100C30BD00342079
:1006BA000130BD00342007140710BD013420FF307B
:0806CA00BD00342007140800F4
:1006D20083160313141394130716871538308312E5
:0406E2009400080078
:1006E600203083120313B7002330B8002530B90039
:1006F6008B2120308312B7002330B8002530B90093
:10070600EE2020080C3C03188A2B0C30A0020A307D
:10071600F4002008F000C9207008A4000A30F40094
:100726002008F000C9207808F0007008AA000A30F6
:10073600F4002308F000C9207008A9000A30F4006C
:100746002308F000C9207808F0007008AB000A30D2
:10075600F4002508F000C9207008AD000A30F40046
:100766002508F000C9207808F0007008AC00700871
:10077600B7002D08B8002B08B9002908BA002A08C6
:10078600BB002408BC0048212008A7002308A600B7
:100796008230FC00DD30FD00FD0BCF2BFC0BCF2B98
:0607A60000000000080045
:1007AC00E7208A110A128000840AA10A0319A20AFE
:0807BC00F003031DD62B080019
:1007C40083120313AE010F308316850003178801CB
:1007D400890114300313930069233D230530B100CC
:1007E4000130B2000130B3000130B400DF227008E0
:1007F4000319FD2B2814281C262C0530B1000130C8
:10080400B2000130B300B401DF2270080319262CB2
:10081400AE0A2E08023C0318242CAE012508B100B0
:1008240034227008B0002608B10034227008AF00EA
:100834002708B10034227008B1002F08B200300834
:10084400B3001823831228102D2C7323392C5B2218
:10085400392CB021392C2E08003A0319272C2E08E4
:10086400013A0319292C2E08023A03192B2CF02BD8
:020874003A2C1C
:04400E00F22F000786
:00000001FF
