:020000001528C1
:0C00060083120D088A000C08820008001C
:1000120003208A110A128000840A8C0A03198D0AAD
:08002200C003031D09280800BA
:10002A00013083168500860183128601F03086002E
:10003A000230CB008630CC009930CD00CD0B23287E
:10004A00CC0B2328CB0B232886098230CC00DD3049
:10005A00CD00CD0B2E28CC0B2E2800000000051C4D
:10006A00372838282928AA3086000230CB00863063
:10007A00CC009930CD00CD0B4028CC0B4028CB0BBF
:10008A00402886098230CC00DD30CD00CD0B4B28CC
:10009A00CC0B4B2800000000051C54285528462884
:1000AA000230CB008630CC009930CD00CD0B5B28D6
:1000BA00CC0B5B28CB0B5B28C40108304402031825
:1000CA0082284408C1000130C00041080319712880
:1000DA00C00D4010FF3E6B28400886008230CC00DD
:1000EA00DD30CD00CD0B7728CC0B7728000000003F
:1000FA00051C80288228C40A6228051C85288628AF
:10010A0061280230CB008630CC009930CD00CD0B6F
:10011A008C28CC0B8C28CB0B8C28C40104304402CD
:10012A000318C2284408C0000130C2000030C300CE
:10013A0040080319A528C20DC30D4210FF3E9E2890
:10014A004408C1008030C00041080319B028C00C1F
:10015A00C013FF3EAA284008420486008230CC0021
:10016A00DD30CD00CD0BB728CC0BB728000000003E
:10017A00051CC028C228C40A9328051CC528C628FD
:06018A0092281B28C72883
:02400E00FA3F77
:00000001FF
