:10000000EC2AFF3FFF3FFF3F031383128C010330B5
:100010000C0203185128373086008230CB00FF30A5
:10002000CA00CB0B14281728CA0B142811288730B4
:10003000CA00CA0B192800002F3086008230CB007E
:10004000FF30CA00CB0B25282828CA0B25282228D8
:100050008730CA00CA0B2A2800001F308600823071
:10006000CB00FF30CA00CB0B36283928CA0B362804
:1000700033288730CA00CA0B3B2800003F30860077
:100080008230CB00FF30CA00CB0B47284A28CA0B6E
:10009000472844288730CA00CA0B4C2800008C0A25
:1000A00007288C0103300C020318BE283730860065
:1000B0008230CB00FF30CA00CB0B5F286228CA0B0E
:1000C0005F285C288730CA00CA0B642800002730EC
:1000D00086008230CB00FF30CA00CB0B702873281B
:1000E000CA0B70286D288730CA00CA0B752800001B
:1000F000073086008230CB00FF30CA00CB0B81284E
:100100008428CA0B81287E288730CA00CA0B86281B
:1001100000000F3086008230CB00FF30CA00CB0BCE
:1001200092289528CA0B92288F288730CA00CA0BBC
:10013000972800001F3086008230CB00FF30CA00B5
:10014000CB0BA328A628CA0BA328A0288730CA0057
:10015000CA0BA82800003F3086008230CB00FF3059
:10016000CA00CB0BB428B728CA0BB428B1288730F3
:10017000CA00CA0BB92800008C0A52288230CB0072
:10018000FF30CA00CB0BC528C828CA0BC528C22817
:100190008730CA00CA0BCA280000073086008230A8
:1001A000CB00FF30CA00CB0BD628D928CA0BD628E3
:1001B000D3288730CA00CA0BDB2800003F308600F6
:1001C0008230CB00FF30CA00CB0BE728EA28CA0BED
:1001D000E728E4288730CA00CA0BEC280000073063
:1001E00086008230CB00FF30CA00CB0BF828FB28FA
:1001F000CA0BF828F5288730CA00CA0BFD28000072
:100200003F3086008230CB00FF30CA00CB0B09297B
:100210000C29CA0B092906298730CA00CA0B0E29E6
:1002200000000800031383128C0103300C02031832
:100230005F293E3086008230CB00FF30CA00CB0BF6
:1002400022292529CA0B22291F298730CA00CA0B57
:10025000272900003D3086008230CB00FF30CA00E5
:10026000CB0B33293629CA0B332930298730CA00F2
:10027000CA0B382900003B3086008230CB00FF30AB
:10028000CA00CB0B44294729CA0B4429412987308E
:10029000CA00CA0B492900003F3086008230CB00DB
:1002A000FF30CA00CB0B55295829CA0B55295229B2
:1002B0008730CA00CA0B5A2900008C0A15298C0104
:1002C00003300C020318CC293E3086008230CB006C
:1002D000FF30CA00CB0B6D297029CA0B6D296A2922
:1002E0008730CA00CA0B722900003C308600823079
:1002F000CB00FF30CA00CB0B7E298129CA0B7E2997
:100300007B298730CA00CA0B832900003830860059
:100310008230CB00FF30CA00CB0B8F299229CA0B49
:100320008F298C298730CA00CA0B942900003930E4
:1003300086008230CB00FF30CA00CB0BA029A32956
:10034000CA0BA0299D298730CA00CA0BA529000025
:100350003B3086008230CB00FF30CA00CB0BB12986
:10036000B429CA0BB129AE298730CA00CA0BB629F5
:1003700000003F3086008230CB00FF30CA00CB0B3C
:10038000C229C529CA0BC229BF298730CA00CA0B96
:10039000C72900008C0A60298230CB00FF30CA00D8
:1003A000CB0BD329D629CA0BD329D0298730CA0031
:1003B000CA0BD8290000383086008230CB00FF30CD
:1003C000CA00CB0BE429E729CA0BE429E1298730CD
:1003D000CA00CA0BE92900003F3086008230CB00FA
:1003E000FF30CA00CB0BF529F829CA0BF529F229F1
:1003F0008730CA00CA0BFA290000383086008230E4
:10040000CB00FF30CA00CB0B062A092ACA0B062AEA
:10041000032A8730CA00CA0B0B2A00003F3086002F
:100420008230CB00FF30CA00CB0B172A1A2ACA0B26
:10043000172A142A8730CA00CA0B1C2A0000080099
:10044000F6300313831286008230CB00FF30CA00DF
:10045000CB0B2B2A2E2ACA0B2B2A282A8730CA001C
:10046000CA0B302A0000243086008230CB00FF30D7
:10047000CA00CB0B3C2A3F2ACA0B3C2A392A8730B8
:10048000CA00CA0B412A0000C03086008230CB006F
:10049000FF30CA00CB0B4D2A502ACA0B4D2A4A2ADC
:1004A0008730CA00CA0B522A000009308600823009
:1004B000CB00FF30CA00CB0B5E2A612ACA0B5E2A32
:1004C0005B2A8730CA00CA0B632A0000DB30860033
:1004D0008230CB00FF30CA00CB0B6F2A722ACA0BC6
:1004E0006F2A6C2A8730CA00CA0B742A00003F307A
:1004F00086008230CB00FF30CA00CB0B802A832AD3
:10050000CA0B802A7D2A8730CA00CA0B852A0000C0
:10051000FF3086008230CB00FF30CA00CB0B912A1F
:10052000942ACA0B912A8E2A8730CA00CA0B962AAF
:1005300000008C0103300C020318C22ABF30860071
:100540008230CB00FF30CA00CB0BA72AAA2ACA0BE5
:10055000A72AA42A8730CA00CA0BAC2A00007F3021
:1005600086008230CB00FF30CA00CB0BB82ABB2AF2
:10057000CA0BB82AB52A8730CA00CA0BBD2A0000A8
:100580008C0A9A2A8C0103300C020318EB2A3F30A4
:1005900086008230CB00FF30CA00CB0BD02AD32A92
:1005A000CA0BD02ACD2A8730CA00CA0BD52A000030
:1005B000FF3086008230CB00FF30CA00CB0BE12A2F
:1005C000E42ACA0BE12ADE2A8730CA00CA0BE62ACF
:1005D00000008C0AC32A0800031383128D01073020
:1005E000831685008601FF308312860007300505DB
:1005F0008D00072B3F3086001F2B12211F2B04205C
:100600001F2B20221F2B12211F2B04201F2B0D0814
:10061000003A0319FA2A0D08013A0319FD2A0D08B8
:10062000023A0319FF2A0D08043A0319012B0D0899
:10063000053A0319032B0D08063A0319052BF62A70
:10064000202BFF3FFF3FFF3FFF3FFF3FFF3FFF3FAD
:02400E00FA3F77
:00000001FF
