:020000009C283A
:10000600831203132230CC00C801C901CA01CB01F7
:10001600CC03031939280310CB0CCA0CC90CC80C25
:10002600C30CC20CC10CC00C031C0B28CC03031957
:100036002B284408C80745080318450FC907460872
:100046000318460FCA0747080318470FCB070F28A0
:100056004408C80745080318450FC907460803188A
:0E006600460FCA0747080318470FCB070800CC
:1000740083121F088E0020088F0090019101013027
:0400840092000800DE
:0C00880083120D088A000C08820008009A
:1000940083121208031D532801309F000030A00072
:1000A4003A200E08C0000F08C1001008C200110851
:1000B400C3006D30C4004E30C500C630C6004130A8
:1000C400C70003203930C5003030C600C701C8015D
:1000D4004008C50741080318410FC6074208031822
:1000E400420FC70743080318430FC8074708C00057
:1000F4004808C1000030C81BFF30C300FF30C005F2
:100104007F30C1050030C205C30540088E00410898
:0C0114008F004208900043089100080092
:1001200044208A110A128000840A8C0A03198D0A5D
:08013000C003031D9028080024
:10013800103083129700083098000430990002307C
:100148009A0001309B0002309C0004309D0008306A
:100158009E00033083168500860183128601831270
:10016800851CE3289301083013020318E2281308BA
:10017800173E8400000886004A200530C200400867
:1001880094004108950042080319D128950C940C55
:100198009513151B9517FF3EC8286830CC00E4302E
:1001A800CD00CD0BD528CC0BD5280000051CE028A8
:1001B800083093008601E328930AB728B628051C5F
:1001C80049291308083A031D492980301506C0003B
:1001D80080304002031DF228C83014020318F728A3
:1001E80001309600262980301506C0008030013A7B
:1001F8004002031D01299030140203180629023019
:100208009600262980301506C0008030023A400248
:10021800031D1029583014020318152904309600BC
:10022800262980301506C0008030033A4002031D9D
:100238001F29203014020318242908309600262983
:1002480010309600930103301302031849298312D2
:1002580086010230CB008630CC009930CD00CD0B22
:100268003329CC0B3329CB0B3329160886000230EF
:10027800CB008630CC009930CD00CD0B4129CC0B7A
:0E0288004129CB0B4129930A2729B3284A2983
:02400E00FA3F77
:00000001FF
