:02000000452990
:0E0006008312031321088A00200882000800DC
:10001400710DF80DF90D7408F8027508031C750FBD
:10002400F902F00DF10D0F30FC00710DF80DF90D12
:100034007408701C2328F8027508031C750FF90254
:100044002828F80775080318750FF907F00DF10D46
:10005400FC0B1728701834287408F807750803185F
:08006400750FF9070000080008
:10006C00831203132230FC00F801F901FA01FB01A1
:10007C00FC0303196C280310FB0CFA0CF90CF80C9C
:10008C00F30CF20CF10CF00C031C3E28FC030319CE
:10009C005E287408F80775080318750FF9077608B9
:1000AC000318760FFA0777080318770FFB07422817
:1000BC007408F80775080318750FF9077608031804
:0E00CC00760FFA0777080318770FFB07080076
:1000DA00831203134E08A3004F08A400A501A6012A
:0600EA000130A200080035
:1000F00083120313F8010830FC00700DF80D74082A
:10010000F80203188528F8070310F00DFC0B7D2872
:020110000800E5
:10011200831203132208031D93280130CE000030FE
:10012200CF006D202308F0002408F1002508F2001A
:100132002608F3006D30F4004E30F500C630F600AC
:100142004130F70036203930F5003030F600F70143
:10015200F8017008F50771080318710FF6077208A5
:100162000318720FF70773080318730FF80777085D
:10017200F0007808F1000030F81BFF30F300FF3088
:10018200F0057F30F1050030F205F3057008A30099
:0E0192007108A4007208A5007308A6000800FA
:1001A000831203137408003A031DDF287508003A10
:1001B000031DDF28FF30F0007F30F10008008312BC
:1001C0000313FD01F901F8017108700403190034EB
:1001D00071087506FA00FA1BFD09FB01F51FF528E9
:1001E000F409F509F40A0319F50AF11FFC28F009CE
:1001F000F109F00A0319F10A71087504FA00FA1BF3
:1002000011290A207B182429FD1F0034F009F10967
:10021000F00A0319F10AF809F909F80A0319F90AA9
:100220000034F51F2029F11B1C297108F900700802
:10023000F800F101F0010429F101F001F00A0034A5
:10024000F109F009FB0A0129F80A0319F90A7408EF
:100250007802031D042975087902031D0429F90198
:10026000F801F00A0319F10AF11F04290000FF3414
:02027000080084
:1002720003208A110A128000840AA00A0319A10A23
:08028200F003031D39290800F7
:10028A0083120313CC01831603178801890186019F
:10029A00031387018801FF308900403083128700E9
:1002AA00403088008601A701891C4D2ACC0A4C08D7
:1002BA00233C031861290614CA010C304A020318A8
:1002CA008C294A084F3EF00002300318013EF10023
:1002DA007008A0007108A10003208A110A12870081
:1002EA007008A0007108A10003208A110A12880070
:1002FA008230FC00DD30FD00FD0B8129FC0B8129D9
:10030A0000000000091D8A298C29CA0A6229091DD0
:10031A008F2990296129091CC929CC010610F001ED
:10032A000030F1005B30F00702300318013EF1079C
:10033A007008A0007108A10003208A110A12870020
:10034A00F0010030F1005B30F00702300318013E83
:10035A00F1077008A0007108A10003208A110A128F
:10036A0088000B30FB002630FC005D30FD00FD0BE1
:10037A00BC29FC0BBC29FB0BBC2900000000403047
:10038A008700403088005929403087004030880073
:10039A0089202330F4000030F500D0207808F000DE
:1003AA007908F100700ACB00CA014C084A02031806
:1003BA00E8294A08273E840000084B06031DE6295F
:1003CA009029CA0ADA2901304C02F000F101031C13
:1003DA00F1037008273E84004B088000CA010330ED
:1003EA004A0203184D2A870188010330FB000830AE
:1003FA00FC007730FD00FD0B002AFC0B002AFB0BEA
:10040A00002A01304C02F000F101031CF1037008CC
:10041A00273ECD004D0884000008F0000A30F400A1
:10042A0078207808F0000030F1005B30F0070230E5
:10043A000318013EF1077008A0007108A10003200B
:10044A008A110A1287004D0884000008F0000A3059
:10045A00F40078200030F1005B30F0070230031816
:10046A00013EF1077008A0007108A10003208A115B
:10047A000A1288000330FB000830FC007730FD00C8
:10048A00FD0B452AFC0B452AFB0B452ACA0AF4290F
:04049A0059294E2A64
:10049E000134033407340F341F343F343E343C34BC
:0804AE003834303420340034EE
:1004B6003F3406345B344F3466346D347D34073450
:0404C6007F346F34DC
:04400E00F22F000786
:00000001FF
