:020000002628B0
:0C00060083120D088A000C08820008001C
:1000120083120313C8010830CC00400DC80D4408F8
:10002200C80203181628C8070310C00DCC0B0E28EF
:020032000800C4
:1000340003208A110A128000840A8C0A03198D0A8B
:08004400C003031D1A28080087
:10004C0083168601831286018E0164300E0203181A
:10005C005F280A30C4000E08C000092040088F0039
:10006C0090010A30C4000E08C00009204808C000E6
:10007C004008910092010430C1000F08C0004108F3
:10008C0003194C28C00D4010FF3E4628831211085E
:10009C00400486000230CB000430CC00BA30CD00D6
:1000AC00CD0B5628CC0B5628CB0B562800008E0AAD
:0600BC002B282A28602811
:02400E00FA3F77
:00000001FF
