:02000000F02CE2
:06000600000000000800EC
:0E000C00213083120313FD00FD0B0A280800AB
:10001A000F3083120313FC004730FD00FD0B132839
:0A002A00FC0B132800000000080082
:1000340083160313DC1B2128831206102328831242
:10004400061483165C1B2928831286102B2883121E
:1000540086148316DC1A312883120611332883127E
:10006400061583165C1A3928831286113B288312DD
:10007400861583164E1841288312061643288312C8
:1000840006128616032086128316DC194C28831266
:1000940006104E288312061483165C195428831202
:1000A40086105628831286148316DC185C28831263
:1000B40006115E288312061583165C1864288312C1
:1000C400861166288312861583164E186C288312AF
:1000D40006166E28831206128616032086128316CD
:0C00E4004E1C76280D207728062008000E
:1000F000831603134E105B08DC001A2083164E147F
:020100000800F5
:100102009328803083160313D700A628C030D70067
:10011200A6289430D700A628D430D700A62880304D
:10012200D700A628831603135708013A0319822819
:100132005708023A031987285708033A03198A28ED
:100142005708043A03198D2890285803F0005708DD
:10015200F0077008D7007008DC001A2083164E10D2
:10016200DA015A085907840000080319C0285A08FE
:10017200590784000008DB007820DA0AB2284E14FE
:02018200080073
:10018400023083120313FC004930FD00FD0BC82824
:0A019400FC0BC82800000000080062
:10019E00E128803083160313D700F428C030D7002F
:1001AE00F4289430D700F428D430D700F4288030C7
:1001BE00D700F428831603135708013A0319D028E1
:1001CE005708023A0319D5285708033A0319D828B5
:1001DE005708043A0319DB28DE285803F0005708A5
:1001EE00F0077008D7004E147008DC001A20831632
:0E01FE004E105908DC001A2083164E1408001B
:10020C0083120313F8010830FC00700DF80D74080C
:10021C00F80203181329F8070310F00DFC0B0B2937
:02022C000800C8
:10022E0083120313F801F9011030FC00710DF80D63
:10023E00F90D7408F8027508031C750FF9020318FE
:10024E002F297408F80775080318750FF90703109E
:0A025E00F00DF10DFC0B1D29080046
:1002680083120313FB01FA01F9018030F800F10C45
:10027800F00C031C48297408F90775080318750F52
:10028800FA070318FB0A0310F01F50297408FA072D
:1002980075080318750FFB07FB0CFA0CF90CF80C22
:1002A800031C3B297B08F3007A08F2007908F10067
:0602B8007808F0000800C8
:1002BE00333083120313FD00FD0B63290000000091
:0202CE00080026
:1002D000831603135208F1000130F000710803196E
:1002E0007529F00D7010FF3E6F297008D600F009D7
:1002F0007008D50051088400700880058417D40167
:100300005408073C031C9B295408F0005308F100D3
:10031000700803198F29F10CF113FF3E8929550844
:100320008005711C9529560880045F2183165608A4
:0E0330008004D40A80298413062006200800C9
:10033E0083160313D21FAE298312300884002D308A
:10034E0080008316D109D209D10A0319D20A5108A5
:10035E00F0005208F100F10CF00CF113F10CF00C5E
:10036E00F113F10CF00CF113F10CF00CF113700809
:10037E00D3006430F400062170080319D629300822
:10038E008316D4006430F4005308F0000621303098
:10039E00F00783165408840070088000DB2983124E
:1003AE0030088400303080008312300A8316D40067
:1003BE000A30F4005308F00006210A30F40006213A
:1003CE007808F0003030F007831654088400700867
:1003DE0080000230831230078316D4000A30F400F6
:1003EE005308F00006217808F0003030F00783162D
:1003FE0054088400700880000F305105F000520838
:10040E00F1000030F1057130F4000230F5003421B6
:10041E00043030078316D400E830F4000330F500C2
:10042E0017213030F00783165408840070088000BE
:10043E000230D7000230D800831230088316D9005C
:10044E008120530883126F02031C2E2A061783166F
:0E045E004C085302031C352A831206130800B3
:10046C00023083160313D7000130D8008F30D90027
:10047C00CF200230D7000730D8008F30D900CF20E2
:10048C000230D7000930D8003E30D900CF200230DE
:0E049C00D7001030D8003C30D900CF20080027
:1004AA00831603135208F1000130F0007108031992
:1004BA00622AF00D7010FF3E5C2A7008D400F00921
:1004CA005108840070088005841770088005C220CE
:1004DA0083165408800484135F2183165408000588
:1004EA00D3005308003A013003190030D300C22068
:0804FA0083165308F00008000E
:10050200023083160313D7000130D8003E30D900E1
:10051200CF200230D7000730D8003C30D900CF209E
:100522000230D7000930D8008F30D900CF200230F6
:0E053200D7001030D8008F30D900CF2008003D
:10054000831603135208F1000130F00071080319FB
:10055000AD2AF00D7010FF3EA72A7008D600700972
:10056000D50051088400D401D3015308073C031C73
:10057000DA2A550880058417550880050320560897
:1005800080040320841356080005F0000319D52ABF
:100590005308F1000130F00071080319D32AF00D5F
:1005A0007010FF3ECD2A7008D40406200620831662
:0A05B000D30AB52A5408F000080031
:0E05BA008316031349088A00480882000800CF
:1005C800023083160313D7000530D8004F08840083
:1005D8000008F0000A30F40006217008303E831647
:1005E800D900CF200230D7000630D8004F08840049
:1005F8000008F0000A30F40006217808F0007008BE
:10060800303E8316D900CF200230D7000E30D800F4
:10061800500884000008F0000A30F4000621700831
:10062800303E8316D900CF200230D7000F30D800D3
:10063800500884000008F0000A30F4000621780809
:10064800F0007008303E8316D900CF2083120519B8
:10065800392B83164D080319392B831267080319A0
:10066800392BE7018316CD01362283120519492B50
:1006780083164D08031D492B831267080319492B5C
:10068800E70101308316CD00812283164D08031936
:10069800792B83128519632B67080319632BE701EC
:1006A80083164F088400633000020318632B4F0839
:1006B8008400000AF0004F0884007008800083124C
:1006C8008518792B67080319792BE70183164F08DA
:1006D80084000008003C0318792B4F0884000003AD
:1006E800F0004F0884007008800083164D08031D31
:1006F800A92B83128519932B67080319932BE701FC
:10070800831650088400633000020318932B5008A6
:100718008400000AF00050088400700880008312EA
:100728008518A92B67080319A92BE7018316500818
:1007380084000008003C0318A92B5008840000031B
:0C074800F00050088400700880000800D9
:10075400013083160313D7000130D8005430D90078
:1007640081200230D7000130D8004330D9008120E5
:100774000230D7000730D800DF30D900CF208312F1
:1007840042088316CF000A30F40083126F08F00089
:1007940006213030F00783164F088400700880006B
:1007A4008312420A8316CF000A30F40083126F08C2
:1007B400F00006217808F0003030F00783164F0867
:1007C400840070088000831266088316CF000A3004
:1007D400F4004C08F00006213030F00783164F086F
:1007E4008400700880008312660A8316CF000A30E2
:1007F400F4004C08F00006217808F0003030F007CF
:1008040083164F088400700880000230D7000B3034
:10081400D800831242088316D90081200230D70001
:100824000F30D800831266088316D9008120323035
:060834008312E50008003C
:10083A00831603139C1C232C00001D2C4F089B00BD
:10084A0050089A009C131C150B08F0008B135530A6
:10085A009D00AA309D009C14F01B352C8B13362C5E
:06086A008B171C110800B1
:10087000053083160313D1000430D2005522053011
:10088000D1000430D200CC30D3006821053083166B
:10089000D1000430D2004430D30068214F30FD0035
:1008A000FD0B502C0000000005308316D1000430F1
:1008B000D20055220530D1000430D200CC30D30014
:1008C000682105308316D1000430D200BE30D30039
:1008D000682105308316D1000430D200A0227008B0
:1008E000CA00CB010530D1000430D200A02270082C
:1008F000F300F2014A087207F00073080318013E82
:100900004B07F1007008CA007108CB007008D100D5
:080910007108D2009F210800CC
:10091800831603134F089B009C131C141A08F0003D
:020928000800C5
:10092A008316031386120612861106118610061004
:10093A0083128612061206108610061186110D20E1
:10094A000D200D20061586158616032086120D2009
:10095A008616032086120D208616032086120D2085
:10096A0086118616032086120D208616032086120B
:10097A00061106148616032086120D200610861507
:10098A0086160320861286118616032086120D20EB
:10099A0086160320861286158616032086120D20D7
:1009AA0086118616032086120614861406158615E5
:0E09BA008616032086120D2083164E140800A8
:1009C800DD228A110A128000840AC80A0319C90A9A
:0809D800F003031DE42C0800EC
:1009E0002C2683160313061383120613FF30831677
:1009F0008500073083129F0095240130DC001A2007
:100A00000C308316DC001A208316CF018C2470086A
:100A10008312EF0001308316CF008C247008CC00C5
:100A200083120518302D01308316D7000130D8000D
:100A30003130D90081200230D7000130D800203079
:100A4000D90081203330FB00BB30FC00DF30FD00DB
:100A5000FD0B282DFC0B282DFB0B282D0000000082
:100A6000AA2383120313051C3D2D851D3D2D851CD6
:100A70003D2D051D3D2D0130E7000518882D670827
:100A80000319882DEE0A02306E02031C482DEE0178
:100A900001308316DC001A20E7016E08003A031DBE
:100AA000682DAA238316CF0183126F088316D00006
:100AB0001D240130CF004C08D0001D248230FC00E2
:100AC000DD30FD00FD0B622DFC0B622D00000000EF
:100AD00083126E08013A031D7C2D01308316D70066
:100AE0000130D800B730D90081200230D700013062
:100AF000D800A630D90081208316CD018230FC00B9
:100B0000DD30FD00FD0B822DFC0B822D000000006E
:100B10009A2D8312E50A6508323C0318912DE501F0
:100B20003824A42D6F3083160313CF00CC30D000AF
:100B3000E422A42D831203136E08003A0319892DB1
:100B40006E08013A0319922D1A30FC00F830FD00AE
:0E0B5000FD0BA82DFC0BA82D0000312DAE2DA5
:100C5800203084004E3083120313F000B430831622
:100C6800C8000530C900E424A03084000630F00034
:100C780024308316C8000630C900E4246E3084008E
:100C88000130F0002A308316C8000630C900E42479
:100C9800A63084002230F00002308316C8000630E7
:060CA800C900E42408006D
:100B68002034543465346C343A34303431343234CB
:100B78003534393433343334323432342034003475
:020B88006834CF
:100B8A0020342034483475346F3420344334683484
:100B9A006534613476346F3472346E3420342034E0
:020BAA00003415
:020BAC00A03473
:100BAE0054343034303430342E34303420344334F2
:100BBE0020344F34303430342034433430343034F5
:020BCE000034F1
:100BD00020342034543465346D34703465347234C8
:100BE000613474347534723465343A3420342034CA
:020BF0000034CF
:020BF2000034CD
:020BF400A33428
:020BF6000034C9
:0C0BF8003034303430342E3430340034CB
:100C040020344F344E343D342034203420342034C6
:100C14003E344F34463446343D34203420343C345E
:020C240000349A
:100C26005334653474342034543465346D3470343C
:100C360065347234613474347534723465343A34DC
:020C4600003478
:060C4800303430340034AA
:060C4E00303430340034A4
:020C540000346A
:02400E006A2125
:00000001FF
