:100000000428FF3FFF3FFF3F3F30031383128D0063
:1000100006308E005B308F004F30900066309100CC
:100020006D3092007D309300073094007F30950052
:100030006F30960083168601831286018C010A3088
:100040000C02031849280C080D3F840000088600A4
:100050000330CC00FF30CB00FF30CA00CC0B31287E
:100060003828CB0B34283728CA0B342831282E28BF
:100070008C30CB00FF30CA00CB0B3F284228CA0B84
:100080003F283C28A130CA00CA0B442800008C0A33
:100090001F288C010A300C0203187A280C08093C2E
:1000A000C000C101031CC10340080D3F84000008CB
:1000B00086000330CC00FF30CB00FF30CA00CC0BF1
:1000C00062286928CB0B65286828CA0B6528622836
:1000D0005F288C30CB00FF30CA00CB0B7028732810
:1000E000CA0B70286D28A130CA00CA0B7528000001
:1000F0008C0A4A281E287B28FF3FFF3FFF3FFF3F17
:02400E00FA3F77
:00000001FF
