:02000000692B6A
:100006000F3083120313FC004730FD00FD0B092857
:0A001600FC0B0928000000000800A0
:0E002000213083120313FD00FD0B142808008D
:06002E00000000000800C4
:1000340083120313D01B2028881121288815501BF4
:100044002528081126280815D01A2A2888102B28B4
:100054008814501A2F2808103028081443183428FC
:10006400081635280812881617208812D0193C283B
:1000740088113D288815501941280811422808156F
:10008400D018462888104728881450184B28081080
:100094004C280814431850280816512808128816AA
:1000A40017208812431C58280320592810200800C0
:0E00B400F201F101F001F801F3010030080043
:1000C2007B15FB1F6B280130F300F201F101F001F7
:0800D200FA0DF20CFF300800EA
:0800DA00FA1FF21300300800C8
:1000E2008312031343104D08D0001A204314080052
:0E00F2008312031345088A00440882000800A8
:10010000710DF80DF90D7408F8027508031C750FD0
:10011000F902F00DF10D0F30FC00710DF80DF90D25
:100120007408701C9928F8027508031C750FF902F1
:100130009E28F80775080318750FF907F00DF10DE3
:10014000FC0B8D287018AA287408F8077508031886
:08015000750FF907000008001B
:10015800BE28803083120313CD00D128C030CD00D3
:10016800D1289430CD00D128D430CD00D12880308A
:10017800CD00D128831203134D08013A0319AD2885
:100188004D08023A0319B2284D08033A0319B52855
:100198004D08043A0319B828BB284E03F0004D084F
:1001A800F0077008CD0043147008D0001A204310DF
:0A01B8004F08D0001A20431408007D
:1001C2000E3083120313FD00FD0BE528000008002A
:1001D200A0017208031DFE287108F2007008F100E8
:1001E200F001A0157208031DFE287108F200F1014A
:1001F200A0112016720803190C292008F302031D0E
:10020200031C10290310F21B1429F00DF10DF20D3D
:10021200F30B042910290130FC005A20172902305F
:0E022200FC00612017290430FC006D2008004C
:10023000FB14FB1F2229FF30F300F200F100F00055
:08024000FA0DF20CFF3008007A
:100248007B14FB1F2F29F201FA1FFF30F200F10087
:0A025800F000FA0DF20CFF30080070
:1002620083120313FB017308031D770803198829FE
:1002720072087606FA007708F3077E30031C4529D8
:10028200F30203188B294829F302031C8E297208F2
:10029200F8007108FC007008FD00F817F61703104B
:1002A200F201F101F0011830A0007D1C62297408EE
:1002B200F00775080318750FF10776080318760F13
:1002C200F207F20CF10CF00CF80CFC0CFD0C031014
:1002D200A00B5629F21B7229F80DF00DF10DF20D4B
:1002E200F3037B1B701C8429F81F8429F00A03196D
:1002F200F10A0319F20A031D8429F20CF10CF00C25
:10030200F30A03198B29FA1FF213003090290130E6
:100312005A209029023018219029043061200000CF
:020322000800D1
:1003240083120313F8010830FC00700DF80D7408F3
:10033400F80203189F29F8070310F00DFC0B972906
:020344000800AF
:10034600403083120313D0001A20CB014B08073C20
:10035600031CBF294B08183EF00004300318013E69
:10036600F1007008C4007108C50079208A110A12CC
:10037600CD007120CB0AA9290230D0001A204908E5
:0C038600CD004A08CE00CF01AC200800DA
:10039200831203137008F8007108F000F101F201F2
:1003A200F301FB01FC019630F300FA01F01FDF2993
:1003B200F809F009F80A0319F00AFA177008F100AF
:0C03C2007808F000F801F201E9200800C2
:1003CE00C330831203139F05C0309F004908F0000D
:1003DE00F00D7010F00D701070089F0483169F17AB
:1003EE0083121F14E1209F149F1CFF290000FB297C
:1003FE001F101E08F100F00183161E08F0040030D5
:04040E00F1040800ED
:100412001B2A803083120313C9002E2AC030C90060
:100422002E2A9430C9002E2AD430C9002E2A8030B8
:10043200C9002E2A831203134908013A03190A2A12
:100442004908023A03190F2A4908033A0319122AE2
:100452004908043A0319152A182A4A03F0004908E0
:10046200F0077008C9007008D0001A204310CC01B0
:100472004C084B07840000080319472A4C084B0715
:1004820084000008CD007120CC0A392A43140800E8
:1004920079208A110A128000840AC40A0319C50A43
:0804A200F003031D492A0800C4
:1004AA00831603138812081208108810081188117D
:1004BA008312881208128811081188100810032064
:1004CA000320032088140814881617208812032092
:1004DA0088161720881203208816172088120320EE
:1004EA0008108816172088120320881617208812E9
:1004FA008810881588161720881203208811081476
:10050A0088161720881208108816172088120320C8
:10051A0088161720881208148816172088120320B4
:10052A0008108816172088128815081588140814C8
:0C053A00881617208812032043140800C4
:10054600831203137408003A031DB22A7508003A91
:10055600031DB22AFF30F0007F30F100080083123D
:100566000313FD01F901F801710870040319003441
:1005760071087506FA00FA1BFD09FB01F51FC82A6A
:10058600F409F509F40A0319F50AF11FCF2AF0094F
:10059600F109F00A0319F10A71087504FA00FA1B49
:1005A600E42A80207B18F72AFD1F0034F009F109A0
:1005B600F00A0319F10AF809F909F80A0319F90A00
:1005C6000034F51FF32AF11BEF2A7108F9007008B1
:1005D600F800F101F001D72AF101F001F00A003428
:1005E600F109F009FB0AD42AF80A0319F90A740872
:1005F6007802031DD72A75087902031DD72AF90147
:10060600F801F00A0319F10AF11FD72A0000FF3496
:020616000800DA
:1006180083120313FB0173080319492B7208FA00AC
:10062800F2178E30F302F31F4C2BF309F30A08304C
:100638007302031C2F2BF300F10D7208F100F20175
:1006480008307302031C2F2BF300F10DF10173081E
:10065800031D0310372B73080319372B0310F20CF3
:10066800F10CF30B322B7B1B711C412B031C412B10
:10067800F10A0319F20AF21B582BFA1F5B2BF20935
:10068800F109F10A0319F20A5B2BF201F1015B2B64
:100698007B14FB1F5E2BF201FA1F5E2BFF30F2006A
:1006A800F100FA0DF20C5E2B0130FC00602B0030DB
:1006B800FC00602BFF30FC00FC080319642B24218C
:0A06C8007108F0007208F10008004C
:1006D200203083120313A1002030A2005430A30063
:1006E2004530A4004D30A5005030A6004530A7008B
:1006F2005230A8004130A9005430AA005530AB0056
:100702005230AC004530AD002030AE002030AF009A
:100712002030B000B1012030B2002030B30054309C
:10072200B4002030B5003D30B6002030B700303084
:10073200B8003030B9002030BA004330BB0020305E
:10074200BC002030BD002030BE002030BF00203071
:10075200C0002030C100C201203083160317880078
:100762008901831287138813831603138601831268
:100772008601FF308316890055220130D0001A20ED
:100782000C30D0001A200130C9000130CA002130DB
:10079200CB0009220230C9000130CA003230CB003E
:1007A20009220230C9000930CA00A3210530C9005C
:1007B200E721C921D730F400A330F5001C30F60040
:1007C2008130F70031210C230A30F4000030F500AB
:1007D200A3227008C60023307002031CF12B0614FA
:1007E20046081E3C031CF62B06100A30F40046088D
:1007F200F00092217008C7000A30F4004608F000A9
:1008020092217808F0007008C8000230CD0007304D
:10081200CE0030304707CF00AC200230CD00083088
:0E082200CE0030304807CF00AC20D72B172C6B
:100830000E341134113411340E34003400340034C9
:04400E00F22F000786
:00000001FF
