:100000000428FF3FFF3FFF3F031383168501831240
:1000100085018C0121300C02031838280C08C0001F
:10002000FE308D00FF308E00FF308F00FF309000DB
:100030004008031922288D0D8E0D8F0D900D0D1087
:10004000FF3F19288D098E098F099009B2201A30B7
:10005000CB00FF30CA00CB0B2E283128CA0B2E282C
:100060002B28E730CA00CA0B332800008C0A0A2864
:100070008C0122300C02031863280C08C000FF30EA
:100080008D00FF308E00FF308F00FF309000400861
:1000900003195128900C8F0C8E0C8D0C9013FF3F80
:1000A0004828B2201A30CB00FF30CA00CB0B5928A9
:1000B0005C28CA0B59285628E730CA00CA0B5E28AC
:1000C00000008C0A39288C0121300C020318B0285A
:1000D0000C08C00000308D0000308E0000308F0012
:1000E00080309000400803197C28900C8F0C8E0CF7
:1000F0008D0C9013FF3F73280C08203CC000C101F9
:10010000031CC1034008C4000030C0000030C1001F
:100110000030C2008030C300440803199628C30C85
:10012000C20CC10CC00CC313FF3F8D2840088D04C6
:1001300041088E0442088F0443089004B2204130E5
:10014000CB00FF30CA00CB0BA628A928CA0BA628D3
:10015000A328C330CA00CA0BAB2800008C0A64284D
:100160000928B128031383129101203011020318CA
:10017000E828051011081F3CC000C101031CC10381
:100180004008C4000D08C0000E08C1000F08C200DE
:100190001008C30044080319D628C30CC20CC10CB4
:1001A000C00CC313431BC317FF3FCB280130C0054E
:1001B0000030C105C205C3054008410442044304A0
:1001C0000319E4288514E52885100514910AB5283B
:1001D000051505110800FF3FFF3FFF3FFF3FFF3FB1
:02400E00FA3F77
:00000001FF
