:100000004529FF3FFF3FFF3F0034003400340034F8
:100010000034003400340034003400340034003440
:100020000034003400340034003400340034003430
:100030000034003400340034003400340034003420
:10004000003400340034003481348134FF34893486
:10005000893489348934FF34813481347034A8344C
:10006000A834B03400348134FF3480340034813417
:10007000FF34803400347034883488347034003471
:100080008034003400348034003400348034003450
:100090000034873438340034003400340034013400
:1000A00007341D347034C134393407343934C03422
:1000B0003934073401347034A834A834B0340034EF
:1000C0008134FF34803400347034883488345834B8
:1000D0000034703488348834703400348834F83410
:1000E00088348834F83488348834F8348034703470
:1000F000A834A834B0340034003400340034083458
:10010000FF348834E83470348834883470340034F0
:100110000034003400340834FF348834E834703458
:10012000883488347034003400340034003481342E
:100130008134FF34863419346134FF34013481341E
:100140008134FF349134913411340E34003400344E
:100150008134FF34813400343C344234813481347E
:10016000823463340034003400340034003400340A
:1001700000340034003400340034003400340034DF
:1001800000340034003400340034003400340034CF
:1001900000340034003400340034003400340034BF
:1001A00000340034003400340034003400340034AF
:1001B000003400340034003400340034003400349F
:1001C000003400340034003400340034003400348F
:1001D000003400340034003400340034003400347F
:1001E000003400340034003400340034003400346F
:1001F000003400340034003400340034003400345F
:10020000003400340034003400340034003400344E
:10021000003400340034003400340034003400343E
:10022000003400340034003400340034003400342E
:10023000003400340034003400340034003400341E
:10024000003400340034003400340034003400340E
:1002500000340034003400340034003400340034FE
:1002600000340034003400340034003400340034EE
:1002700000340034003400340034003400340034DE
:100280000034003400340034080003138312910159
:100290009201831685018601831286018F01033046
:1002A0000F020318842990012030100203188229BC
:1002B0001008850011081007C00000300318013F26
:1002C0001207C1000430C00700300318013FC10706
:1002D00040088E0041088D000A088C009721860096
:1002E0000C088A000230CB00FF30CA00CB0B792902
:1002F0007C29CA0B792976294A30CA00CA0B7E2983
:10030000900A54298F0A4F29910A0319920A8030C2
:100310001206C0008030013A4002031D91292030AE
:100320001102031C9529910192014E29962903136C
:1003300083120D088A000E0882000800FF3FFF3F6D
:02400E00FA3F77
:00000001FF
