:020000002628B0
:0C00060083120D088A000C08820008001C
:1000120003208A110A128000840A8C0A03198D0AAD
:08002200C003031D09280800BA
:10002A0083120313C8010830CC00400DC80D4408E0
:10003A00C80203182228C8070310C00DCC0B1A28BF
:02004A000800AC
:10004C008312920103308316850086018312860188
:10005C00051C6228920A64301202031C3628920195
:10006C000A30C4001208C000152040088E008F0111
:10007C000A30C4001208C00015204808C00040080F
:10008C00900091010430C1000E08C0004108031912
:10009C005328C00D4010FF3E4D2810084004860028
:1000AC000330CB000830CC007730CD00CD0B5C2872
:1000BC00CC0B5C28CB0B5C28851C97281208003ACB
:1000CC00031D6A286430920092030A30C40012089F
:1000DC00C000152040088E008F010A30C4001208A1
:1000EC00C00015204808C000400890009101043061
:1000FC00C1000E08C000410803198828C00D40102B
:10010C00FF3E82281008400486000330CB000830E4
:10011C00CC007730CD00CD0B9128CC0B9128CB0B9C
:06012C0091282E289828FE
:02400E00FA3F77
:00000001FF
