:100000000428FF3FFF3FFF3F3F3003138312900060
:10001000063091005B3092004F30930066309400C0
:100020006D3095007D309600073097007F30980046
:100030006F3099008E018316860183128601831624
:100040008501831285010A30C4000E08C0007020AB
:1000500040088C000A30C4000E08C0007020480818
:10006000C00040088D008F0114300F02031868286B
:100070000C08103F840000088600013085000D3018
:10008000CB00FF30CA00CB0B46284928CA0B4628B4
:100090004328F330CA00CA0B4B28000086010D0824
:1000A000103F840000088600023085000D30CB0030
:1000B000FF30CA00CB0B5D286028CA0B5D285A2888
:1000C000F330CA00CA0B6228000086018F0A342868
:1000D0008E0A64300E02031C6E288E0123286F28BE
:1000E00003138312C8010830CC00400DC80D44082A
:1000F000C80203187D28C8070310C00DCC0B752853
:100100000800FF3FFF3FFF3FFF3FFF3FFF3FFF3F35
:02400E00FA3F77
:00000001FF
